:100000000C9482000C94AA000C94AA000C94AA00F0
:100010000C94AA000C94AA000C94AA000C94AA00B8
:100020000C94AA000C94AA000C94AA000C94AA00A8
:100030000C94AA000C94AA000C94AA000C94AA0098
:100040000C9415060C94AA000C94E3050C94BD05C1
:100050000C94AA000C94AA000C94AA000C94AA0078
:100060000C945F060C94AA002027430054656D7021
:10007000657261747572653A2000205600566F6C87
:10008000746167653A2000206D416800202F2000D0
:100090004261747465727920436170616369747937
:1000A0003A200052617720416363756D756C61740D
:1000B0006564204368617267653A200000000000B3
:1000C000250028002B000404040404040404020294
:1000D00002020202030303030303010204081020C7
:1000E00040800102040810200102040810200000D2
:1000F00000080002010000030407000000000000E7
:1001000000007E0711241FBECFEFD8E0DEBFCDBFB9
:1001100011E0A0E0B1E0E6E7F9E102C005900D9240
:10012000AE36B107D9F722E0AEE6B1E001C01D92CC
:10013000AB3DB207E1F710E0C2E8D0E004C0219780
:10014000FE010E94B30CC138D107C9F70E94C30752
:100150000C94B90C0C940000982F20912A0281E095
:10016000213208F043C0809106028111FCCF8091BA
:10017000290232E030930602909305029FEF90939C
:1001800004021092030220930202A9E0B2E0E2EE20
:10019000F1E090E0291331C01092E1019091E1016A
:1001A000880F892B8093E1018091E001813049F52E
:1001B0001092E0018091E1018093BB008091BC002E
:1001C00083FDF8CF85EC8093BC00809106028230DD
:1001D000E1F3809104028F3FB1F0809104028032FC
:1001E000A1F080910402803391F084E01092080223
:1001F00010922A021092070208953D9131939F5F59
:10020000C9CF85EEE0CF80E0F1CF82E0EFCF83E091
:10021000EDCFCF93C82F8091D9029091DA0221E0DF
:100220002093070224E620932902109208021092DC
:100230002A02DC01ED91FC910190F081E02D61E05A
:1002400009958091D9029091DA02DC01ED91FC913F
:100250000190F081E02D6C2F099581E00E94AC00A7
:1002600091E0811190E0892FCF91089590E0FC01F9
:10027000E251FF4F2491FC01E652FF4F3491FC0103
:10028000EA53FF4FE491EE23B1F0222339F02330FB
:10029000E9F090F4213001F1223011F1F0E0EE0F9D
:1002A000FF1FE454FF4FA591B4918FB7F894EC91E0
:1002B0003E2B3C938FBF08952730A9F02830C9F01A
:1002C000243061F7809180008F7D03C08091800091
:1002D0008F7780938000E2CF84B58F7784BDDECFA7
:1002E00084B58F7DFBCF8091B0008F778093B00075
:1002F000D5CF8091B0008F7DF9CF08950895AF924A
:10030000BF92CF92DF92EF92FF920F931F93CF9302
:10031000DF936C017B018B01040F151FEB015E0164
:10032000AE18BF08C017D10759F06991D601ED91F9
:10033000FC910190F081E02DC6010995892B79F798
:10034000C501DF91CF911F910F91FF90EF90DF904A
:10035000CF90BF90AF900895FC01538D448D252F11
:1003600030E0842F90E0821B930B541710F0CF964F
:10037000089501970895FC01918D828D981761F081
:10038000A28DAE0FBF2FB11D5D968C91928D9F5F98
:100390009F73928F90E008958FEF9FEF0895FC0177
:1003A000918D828D981731F0828DE80FF11D858D2A
:1003B00090E008958FEF9FEF0895FC01918D228DBD
:1003C000892F90E0805C9F4F821B91098F73992742
:1003D00008958BE292E00E94DD0121E0892B09F46F
:1003E00020E0822F089580E090E0892B29F00E9480
:1003F000E90181110C9400000895FC01A48DA80F5F
:10040000B92FB11DA35ABF4F2C91848D90E0019656
:100410008F739927848FA689B7892C93A089B18976
:100420008C91837080648C93938D848D981306C017
:100430000288F389E02D80818F7D80830895EF927B
:10044000FF920F931F93CF93DF93EC0181E0888F8E
:100450009B8D8C8D98131AC0E889F989808185FF5E
:1004600015C09FB7F894EE89FF896083E889F98900
:1004700080818370806480839FBF81E090E0DF9102
:10048000CF911F910F91FF90EF900895F62E0B8D55
:1004900010E00F5F1F4F0F731127E02E8C8D8E1110
:1004A0000CC00FB607FCFACFE889F989808185FF77
:1004B000F5CFCE010E94FD01F1CFEB8DEC0FFD2FAA
:1004C000F11DE35AFF4FF0829FB7F8940B8FEA8932
:1004D000FB8980818062CFCF0F931F93CF93DF93EF
:1004E0008C01D0E0C0E0F801EC0FFD1F64916623A1
:1004F00041F08BE292E00E941F02892B11F02196BD
:10050000F2CFCE01DF91CF911F910F910895CF933C
:10051000DF93EC01888D8823B9F0AA89BB89E8892B
:10052000F9898C9185FD03C0808186FD0DC00FB6D1
:1005300007FCF7CF8C9185FFF2CF808185FFEDCF4F
:10054000CE010E94FD01E9CFDF91CF9108953FB721
:10055000F8948091B6019091B701A091B801B09143
:10056000B90126B5A89B05C02F3F19F00196A11D22
:10057000B11D3FBFBA2FA92F982F8827BC01CD01ED
:10058000620F711D811D911D42E0660F771F881F4C
:10059000991F4A95D1F708958F929F92AF92BF927B
:1005A000CF92DF92EF92FF924B015C010E94A70273
:1005B0006B017C010E94A7026C197D098E099F09BD
:1005C000683E734081059105A8F321E0821A9108E5
:1005D000A108B10888EEC80E83E0D81EE11CF11C0A
:1005E00081149104A104B10429F7FF90EF90DF90EA
:1005F000CF90BF90AF909F908F90089585ED80939E
:10060000BC008091BC0084FDFCCF109206020895CE
:1006100020918E01260F3327331F21323105ECF450
:1006200020910602FC0190E080E0243069F082E035
:100630000895A0918E012191AC0142595E4FA40F03
:10064000B52FB11D2C930196861798F380918E01DA
:10065000680F60938E0180E0089581E00895089509
:10066000E091BF018091BE01E81730F4F0E0E05462
:10067000FE4F808190E008958FEF9FEF0895909155
:10068000BF018091BE012FEF3FEF981748F4E92F8B
:10069000F0E0E054FE4F208130E09F5F9093BF0177
:1006A000C90108958091BE019091BF01891B990BEA
:1006B0000895CF92DF92EF92FF920F931F93CF9303
:1006C000DF937C01CB018A0120910702222389F06C
:1006D000EB016B01C40ED51ECC15DD0569F06991E7
:1006E000D701ED91FC910190F081E02DC7010995B2
:1006F000F3CF642F0E940803C801DF91CF911F91AF
:100700000F91FF90EF90DF90CF900895CF93DF93FC
:100710001F92CDB7DEB76983209107022223F9F03B
:1007200020912A02203258F021E030E0FC0133838E
:10073000228390E080E00F90DF91CF910895809127
:100740000802E82FF0E0E75FFD4F998190838F5F0B
:100750008093080280932A0281E090E0ECCF61E070
:10076000CE0101960E940803F7CF90E080E0089543
:10077000809106028111FCCF962F81E080930602C2
:10078000809305022FEF2093040210920302260F9C
:10079000209302028093E1018091E101886C8093B3
:1007A000E1018091E001813019F51092E001809122
:1007B000E1018093BB008091BC0083FDF8CF85EC04
:1007C0008093BC00809106028130E1F380910302A6
:1007D000861710F490910302A2EEB1E0E0ECF1E094
:1007E00080E0891307C01092BF018093BE01089575
:1007F00085EEE6CF2D9121938F5FF3CF1F93CF939B
:10080000DF93C4EDD2E0AD81BE8191E09093070209
:1008100094E6909329021092080210922A02ED9118
:10082000FC9111970190F081E02D682FCD01099581
:1008300080E00E94AC0062E070E08D819E810E94A9
:10084000B8038D819E81DC01ED91FC910284F385DA
:10085000E02D0995182F8D819E81DC01ED91FC9191
:100860000284F385E02D0995C82F81E00E94AC0039
:1008700080E0912F8C2BDF91CF911F910895CF9322
:10088000DF93C4EDD2E0AD81BE8191E09093070289
:1008900094E6909329021092080210922A02ED9198
:1008A000FC9111970190F081E02D682FCD01099501
:1008B00080E00E94AC0061E070E08D819E810E942A
:1008C000B8038D819E81DC01ED91FC910284F3855A
:1008D000E02D0995C82F81E00E94AC008C2FDF919C
:1008E000CF910895CF93DF93C82F81E00E943F04FA
:1008F00090E4C99FE00111248F738C2BDF91CF917D
:100900000C940901FC0101900020E9F73197AF0137
:10091000481B590BBC018BE292E00C947F01CF93F2
:10092000DF930E946C02EC0184E291E00E94820459
:100930008C0F9D1FDF91CF9108958F929F92AF9260
:10094000BF920F931F93CF93DF93CDB7DEB7A197DD
:100950000FB6F894DEBF0FBECDBF19A2423008F427
:100960004AE08E010F5D1F4F842E912CB12CA12CDB
:10097000A50194010E94910CE62FB901CA01EA3049
:10098000F4F4E05DD801EE938D01232B242B252B6D
:1009900079F790E080E0109719F0CD010E94820471
:1009A000A1960FB6F894DEBF0FBECDBFDF91CF91F9
:1009B0001F910F91BF90AF909F908F900895E95C29
:1009C000E1CF4F925F926F927F928F929F92AF9200
:1009D000BF92CF92DF92EF92FF920F931F93CF932C
:1009E0006B017C01742EAC019B010E948C0C88234E
:1009F00099F087E291E0CF911F910F91FF90EF90D6
:100A0000DF90CF90BF90AF909F908F907F906F902E
:100A10005F904F900C94820446015701E894B7F818
:100A20002FEF3FEF4FE75FE7C501B4010E948C0C49
:100A300081110DC02FEF3FEF4FE75FE7C501B40114
:100A40000E94C20A18161CF48BE291E0D4CF2FEF5B
:100A50003FEF4FE75FE4C701B6010E941A0C18167A
:100A60001CF48FE291E0C7CF2FEF3FEF4FE75FEC31
:100A7000C701B6010E94C20A87FDF3CF20E030E033
:100A8000A901C701B6010E94C20A10E000E087FF79
:100A90000AC06DE28BE292E00E941F028C01F7FA1D
:100AA000F094F7F8F094C0E060E070E080E09FE33D
:100AB0007C1641F020E030E040E251E40E94C70A99
:100AC000CF5FF6CFA70196010E94560A2B013C0189
:100AD0000E94390B4B015C014AE00E949D047C019D
:100AE000E00EF11ECC23C1F1C501B4010E94680BD8
:100AF0009B01AC01C301B2010E94550A4B015C018C
:100B00006EE28BE292E00E941F02E80EF91EC150D5
:100B100018F120E030E040E251E4C501B4010E9448
:100B20001F0C2B013C010E94390B4B01B12CA12C55
:100B30004AE0C501B4010E949D04E80EF91EC501FA
:100B4000B4010E94680B9B01AC01C301B2010E9479
:100B5000550A4B015C01DBCFC701CF911F910F916B
:100B6000FF90EF90DF90CF90BF90AF909F908F90CD
:100B70007F906F905F904F9008951F920F920FB6E5
:100B80000F9211242F933F934F935F936F937F9313
:100B90008F939F93AF93BF93EF93FF938BE292E07A
:100BA0000E94FD01FF91EF91BF91AF919F918F91B5
:100BB0007F916F915F914F913F912F910F900FBE59
:100BC0000F901F9018951F920F920FB60F9211243D
:100BD0002F938F939F93EF93FF93E0913B02F091BC
:100BE0003C028081E0914102F091420282FD1BC0F3
:100BF0009081809144028F5F8F732091450282170C
:100C000041F0E0914402F0E0E55DFD4F958F809367
:100C10004402FF91EF919F918F912F910F900FBE02
:100C20000F901F9018958081F4CF1F920F920FB6EE
:100C30000F9211242F933F938F939F93AF93BF9362
:100C40008091B2019091B301A091B401B091B5012E
:100C50003091B10123E0230F2D3758F50196A11DE6
:100C6000B11D2093B1018093B2019093B301A09381
:100C7000B401B093B5018091B6019091B701A091F4
:100C8000B801B091B9010196A11DB11D8093B601C3
:100C90009093B701A093B801B093B901BF91AF9100
:100CA0009F918F913F912F910F900FBE0F901F90AA
:100CB000189526E8230F0296A11DB11DD2CF1F92D1
:100CC0000F920FB60F9211242F933F934F935F9380
:100CD0006F937F938F939F93AF93BF93EF93FF9304
:100CE0008091B900887F803609F44AC0F0F58832D7
:100CF00009F4A7C018F5803109F49BC0B8F4882323
:100D000009F4F9C0883009F494C0FF91EF91BF91C4
:100D1000AF919F918F917F916F915F914F913F9193
:100D20002F910F900FBE0F901F901895883109F4E6
:100D300088C0803251F78093040214C0803409F4D3
:100D40009DC040F48033B9F38833F9F680930402F0
:100D500085ECB0C0803509F485C0883509F496C0AB
:100D6000883499F60E94FE02D0CF883909F48CC0ED
:100D700038F5883729F050F4883611F0803729F695
:100D800083E0809306021092B00157C0883809F4BE
:100D90007BC0803919F0803809F0B7CF8091B0015D
:100DA000803208F071C0E091B00181E08E0F809335
:100DB000B0018091BB00F0E0E057FE4F80833DC062
:100DC000803B39F0E0F4803A09F479C0883A09F0C0
:100DD0009CCF84E08093060210928F0110928E01C6
:100DE000E091BC01F091BD01099580918E018111C6
:100DF0000FC081E080938E0110926E0109C0803C8B
:100E000009F4A6CF883C09F4A3CF883B09F07DCF35
:100E1000E0918F0181E08E0F80938F01F0E0E25925
:100E2000FE4F80818093BB0090918F0180918E0155
:100E300029C08091E1018093BB0085EC8093BC00C8
:100E400064CF9091030280910202981758F5E091C7
:100E5000030281E08E0F80930302F0E0EE51FE4F1B
:100E60008081E9CFE091030281E08E0F809303023D
:100E70008091BB00F0E0EE51FE4F80839091030221
:100E8000809102029817C8F285E8D8CFE09103025A
:100E900081E08E0F809303028091BB00F0E0EE5161
:100EA000FE4F80838091050281115CCF81E08093A9
:100EB000E00184EA8093BC001092060226CF85EC04
:100EC0008093BC00109206028091B001803230F411
:100ED000E091B001F0E0E057FE4F10826091B00168
:100EE00070E0E091BA01F091BB0180E991E00995D1
:100EF0001092B0010ACF1092040234CFEBE2F2E07C
:100F00001382128288EE93E0A0E0B0E084839583A0
:100F1000A683B78324E031E03183208325EC30E0E1
:100F20003587248724EC30E03787268720EC30E0B3
:100F3000318B208B21EC30E0338B228B22EC30E0A4
:100F4000358B248B26EC30E0378B268B118E128E5E
:100F5000138E148EE8ECF2E0138212828483958360
:100F6000A683B78386E191E091838083E4EDF2E08C
:100F700084E180838FEF9FEF9283818380EF95E5FB
:100F8000948383830895789484B5826084BD84B506
:100F9000816084BD85B5826085BD85B5816085BD74
:100FA00080916E00816080936E001092810080912C
:100FB00081008260809381008091810081608093B4
:100FC0008100809180008160809380008091B100D9
:100FD00084608093B1008091B00081608093B00004
:100FE00080917A00846080937A0080917A00826098
:100FF00080937A0080917A00816080937A0080915A
:101000007A00806880937A001092C100E0913B02E0
:10101000F0913C0282E08083E0913702F091380247
:101020001082E0913902F0913A028FEC80831092A5
:101030004302E0913F02F091400286E08083E0911C
:101040003D02F0913E02808180618083E0913D020B
:10105000F0913E02808188608083E0913D02F091B2
:101060003E02808180688083E0913D02F0913E02E3
:1010700080818F7D808383E391E00E94820484E2FB
:1010800091E00E94820484E291E00E948204109226
:10109000BF011092BE011092080210922A02109213
:1010A000060281E0809305021092E00182E10E9435
:1010B000360183E10E9436018091B9008E7F8093D2
:1010C000B9008091B9008D7F8093B90088E4809346
:1010D000B80085E48093BC008DE791E09093BD015A
:1010E0008093BC018EE791E09093BB018093BA019D
:1010F000C8ECD2E0D093DA02C093D90280E00E941B
:101100003F0487FF0FC084E591E00E94820484E2DF
:1011100091E00E94820468E873E180E090E00E9420
:10112000CC02E8CF8EE190E09093D8028093D70272
:101130006091D40270E090E080E00E94680B20E0B3
:1011400030E048E452E40E94C70A28E738E740EB61
:1011500050E40E941F0C0E94390B613020E172079D
:101160008105910520F060E070E180E090E0615041
:101170007109CB0196958795682B792BCB019695B4
:10118000879596958795682B792BCB01B4E096953A
:101190008795BA95E1F7682B792B872F9927682BCC
:1011A000792B611530E1730740F56F5F7F4F7093C6
:1011B000D6026093D502C6E0613044E0740798F42B
:1011C00030E020E0C22FC901880F991FDB0102C067
:1011D000B695A7958A95E2F7A0FD05C02F5F3F4F12
:1011E0002630310579F781E00E943F04877CCC0FDF
:1011F000CC0FCC0F8C2B0E9409018091D9029091C9
:10120000DA0221E02093070224E6209329021092BB
:10121000080210922A02DC01ED91FC910190F0810C
:10122000E02D62E009958091D9029091DA02DC010B
:10123000ED91FC910190F081E02D6FEF0995809187
:10124000D9029091DA02DC01ED91FC910190F081DC
:10125000E02D6FEF099581E00E94AC0080E00E94D4
:10126000720481E00E943F048E7F0E94090101E028
:1012700010E040E0C42E40E0D42E56E0E52EF12CE4
:1012800082E00E94FE03EC0183EA90E00E946C027F
:10129000BE0190E080E04AE00E949D0484E291E07B
:1012A0000E9482048091D5029091D602019611F598
:1012B00081E00E943F04887390E033E09595879524
:1012C0003A95E1F78730910509F4EAC09093D60288
:1012D0008093D5028091D5029091D602880F991FF4
:1012E000980102C0220F331F8A95E2F73093D6028D
:1012F0002093D50282E00E94FE03EC016091D702A8
:101300007091D80290E080E00E94680B4B015C0174
:101310006091D40270E090E080E00E946A0B9B0133
:10132000AC0160E070E088E492E40E94C70A2BE719
:1013300034E14EEA5EE30E941F0C2B013C016091F8
:10134000D5027091D60290E080E00E94680B20E008
:1013500030E040E859E30E941F0C9B01AC01C3013F
:10136000B2010E941F0C2B013C01C095D095BE011B
:1013700090E080E00E94680B9B01AC01C301B201C8
:101380000E941F0C9B01AC01C501B4010E94550ACB
:101390004B015C0180E990E00E946C0243E0C501D2
:1013A000B4010E94E1048CE890E00E946C024AE0E3
:1013B0006EE170E080E090E00E949D0487E890E09C
:1013C0000E948F0481E00E9472046AE070E080E075
:1013D00090E00E94CC0288E00E94FE03EC018DE7C1
:1013E00090E00E946C02BE0190E080E00E94680BD9
:1013F00020E03FEF4FE757E40E94C70A2AE939E9A6
:101400004DE852E40E941F0C43E00E94E1048AE789
:1014100090E00E948F0481E00E9472046AE070E014
:1014200080E090E00E94CC0284E10E94FE03EC0187
:101430008CE690E00E946C02BE0190E080E00E9489
:10144000680B20E03FEF4FE757E40E94C70A20E017
:1014500030E04FEF53E40E941F0C23E333E948E8E8
:1014600053E40E94550A42E00E94E10488E690E0BD
:101470000E948F0484E291E00E94820468E873E194
:1014800080E090E00E94CC02C114D10409F4F8CEAF
:101490000E94E901882309F4F3CE0E940000F0CEF7
:1014A000F092D602E092D50215CF5058BB27AA275A
:1014B0000E946D0A0C94E00B0E94D20B38F00E943F
:1014C000D90B20F039F49F3F19F426F40C94CF0B7C
:1014D0000EF4E095E7FB0C94C90BE92F0E94F10B89
:1014E00058F3BA17620773078407950720F079F459
:1014F000A6F50C94130C0EF4E0950B2EBA2FA02D2C
:101500000B01B90190010C01CA01A0011124FF27B0
:10151000591B99F0593F50F4503E68F11A16F040AB
:10152000A22F232F342F4427585FF3CF46953795AA
:101530002795A795F0405395C9F77EF41F16BA0B6F
:10154000620B730B840BBAF09150A1F0FF0FBB1F1D
:10155000661F771F881FC2F70EC0BA0F621F731F66
:10156000841F48F4879577956795B795F7959E3FC3
:1015700008F0B0CF9395880F08F09927EE0F979554
:10158000879508950E94A50B08F481E008950E94B4
:10159000DB0A0C94E00B0E94D90B58F00E94D20B8E
:1015A00040F029F45F3F29F00C94C90B51110C94C1
:1015B000140C0C94CF0B0E94F10B68F39923B1F338
:1015C000552391F3951B550BBB27AA276217730769
:1015D000840738F09F5F5F4F220F331F441FAA1FFD
:1015E000A9F335D00E2E3AF0E0E832D091505040B9
:1015F000E695001CCAF72BD0FE2F29D0660F771F67
:10160000881FBB1F261737074807AB07B0E809F04C
:10161000BB0B802DBF01FF2793585F4F3AF09E3FD1
:10162000510578F00C94C90B0C94140C5F3FE4F353
:10163000983ED4F3869577956795B795F7959F5F14
:10164000C9F7880F911D9695879597F90895E1E060
:10165000660F771F881FBB1F621773078407BA07BF
:1016600020F0621B730B840BBA0BEE1F88F7E0951A
:1016700008950E94F90B88F09F5798F0B92F992789
:10168000B751B0F0E1F0660F771F881F991F1AF06D
:10169000BA95C9F714C0B13091F00E94130CB1E0B3
:1016A00008950C94130C672F782F8827B85F39F0B2
:1016B000B93FCCF3869577956795B395D9F73EF406
:1016C00090958095709561957F4F8F4F9F4F0895AE
:1016D000E89409C097FB3EF49095809570956195CC
:1016E0007F4F8F4F9F4F9923A9F0F92F96E9BB2782
:1016F0009395F695879577956795B795F111F8CFFE
:10170000FAF4BB0F11F460FF1BC06F5F7F4F8F4F68
:101710009F4F16C0882311F096E911C0772321F05E
:101720009EE8872F762F05C0662371F096E8862FF6
:1017300070E060E02AF09A95660F771F881FDAF74D
:10174000880F9695879597F90895990F0008550F7A
:10175000AA0BE0E8FEEF16161706E807F907C0F037
:1017600012161306E407F50798F0621B730B840B3F
:10177000950B39F40A2661F0232B242B252B21F419
:1017800008950A2609F4A140A6958FEF811D811DB9
:10179000089597F99F6780E870E060E008959FEFF3
:1017A00080EC089500240A941616170618060906F8
:1017B000089500240A9412161306140605060895C7
:1017C000092E0394000C11F4882352F0BB0F40F44F
:1017D000BF2B11F460FF04C06F5F7F4F8F4F9F4F8F
:1017E000089557FD9058440F551F59F05F3F71F011
:1017F0004795880F97FB991F61F09F3F79F0879578
:101800000895121613061406551FF2CF4695F1DF00
:1018100008C0161617061806991FF1CF8695710590
:10182000610508940895E894BB2766277727CB01C4
:1018300097F908950E94A50B08F48FEF08950E9470
:10184000320C0C94E00B0E94D20B38F00E94D90BA2
:1018500020F0952311F00C94C90B0C94CF0B11249C
:101860000C94140C0E94F10B70F3959FC1F3950F2B
:1018700050E0551F629FF001729FBB27F00DB11D14
:10188000639FAA27F00DB11DAA1F649F6627B00DA4
:10189000A11D661F829F2227B00DA11D621F739F8D
:1018A000B00DA11D621F839FA00D611D221F749F9B
:1018B0003327A00D611D231F849F600D211D822FE2
:1018C000762F6A2F11249F5750409AF0F1F0882309
:1018D0004AF0EE0FFF1FBB1F661F771F881F915036
:1018E0005040A9F79E3F510580F00C94C90B0C9411
:1018F000140C5F3FE4F3983ED4F386957795679593
:10190000B795F795E7959F5FC1F7FE2B880F911D5F
:101910009695879597F908950E94A50B880B990BCA
:101920000895A1E21A2EAA1BBB1BFD010DC0AA1F20
:10193000BB1FEE1FFF1FA217B307E407F50720F038
:10194000A21BB30BE40BF50B661F771F881F991FB3
:101950001A9469F760957095809590959B01AC01FC
:10196000BD01CF010895EE0FFF1F0590F491E02D0A
:061970000994F894FFCF7A
:10197600000000001F027F01AC018702DD01BB01F0
:10198600CF010000000086035903B5032F0352035D
:101996003F0330030D0A006E616E00696E66006FCC
:1019A6007666004C5443323934342042617474658F
:1019B60072792052656164696E6773204578616D3E
:1019C600706C65004661696C656420746F2064659F
:0E19D60074656374204C54433239343421005C
:00000001FF
